:02000002B0004C
:1040000000400B00FC770B00000006000C000502CE
:084010000401E50C00000000B2
:044018004C690B00E4
:10401C0009480A49884208B505D0094A824202D0AB
:10402C00121A02F0DAFB0748074A0021121A02F0B2
:10403C00E2FB014808BD00BFA8E5032068770B0030
:10404C0014E6032014E60320EDE7032070B5074EB9
:10405C00074C02F0C7F8A41BA4080025AC4200D101
:10406C0070BD56F8043B98470135F7E71C770B00F9
:10407C0040770B0000F07EB808B500F099F8BDE869
:10408C00084002F067B801F07DBD01F083BD00006F
:10409C0008B5034A03490C2001F0E0FCFEE700BF21
:1040AC00E9590B0060690B000078B0FA80F0400908
:1040BC007047012303707047704710B510210446F8
:1040CC00FFF7E3FF204610BD70B505460C461646BB
:1040DC0042B90368C9B29B6898472846BDE870404E
:1040EC0002F0F9B800290ADA0A2A08D12D2102F0C7
:1040FC00EFF86142F2B2284602F003F9EDE72146EF
:10410C00F8E70EB403B503AB002153F8042B01936D
:10411C0002F015F902B05DF804EB03B07047000033
:10412C0073B5044608462279A36832B1A3B90B498A
:10413C0002B0BDE8704002F0C7B8094A267B094DB1
:10414C000949647B012E18BF2946CDE900140749A3
:10415C00FFF7D7FF02B070BD054AEFE786690B0089
:10416C00BC690B0082690B007E690B009C690B001B
:10417C0075690B001FB502F049FA0A4901F0BAFE45
:10418C00094800F0DBFE01A800F0F8F8502101A866
:10419C0000F001F901A9054800F060F905B05DF8DF
:1041AC0004FB00BF801A060054E603202CE6032013
:1041BC0013B5194C204600F0EAFE204600F01CFB1B
:1041CC004FF00113002269461448C4E9042300F09F
:1041DC001BF91349204602F077F8BDF900100A22AA
:1041EC002046FFF771FF0F49204602F06DF8BDF92C
:1041FC0002100A222046FFF767FF0B49204602F007
:10420C0063F8BDF904100A222046FFF75DFF204633
:10421C0000F060FD02B010BD54E603202CE6032034
:10422C00B9690B00BD690B00C1690B001B4B37B59D
:10423C000022C3E90022A2F580329A60184C194D75
:10424C00032001F07BFC0721174800F049FE0821F0
:10425C00204600F0ABF8154B23602978BFF35B8F39
:10426C0011F001010BD128460191FFF71DFF0199B7
:10427C0028B10F4802F0B4F82846FFF71AFF0C4B90
:10428C00E3600323236100230A4A237523770A4B37
:10429C0023620123A261A38403B030BD20E6032076
:1042AC002CE6032014E6032054E60320146A0B00CA
:1042BC0018E60320D0690B0080969800704710B563
:1042CC0028210446FFF7E1FE204610BD10B5044638
:1042DC0000F11801C06802F0CFF8208A0021BDE877
:1042EC00104002F046BA10B504460121008A02F0D3
:1042FC0040FAE068BDE8104002F0A4B8F8B51E46DC
:10430C0003685B690F46144605469847012E88BF23
:10431C0047F04007E86847F0800102F01BF926449B
:10432C00B44206D0E868002102F014F904F8010B3D
:10433C00F6E72B6828469B6998470120F8BDF8B52D
:10434C001E4603685B690F46144605469847012EC6
:10435C0088BF47F04007E868394602F0FBF826446E
:10436C00B44205D014F8011BE86802F0F3F8F7E743
:10437C002B6828469B6998470120F8BD00220270E3
:10438C0042708270C270027142718271C27102728B
:10439C00427282727047002241F007010170027173
:1043AC0082704270C271427270470000024AC0E9CA
:1043BC000021002202727047F8690B0013B50368E4
:1043CC0001AADC680123A0479DF8040002B010BDCF
:1043DC0038B505460A240F212846FFF7EFFF33288E
:1043EC004FF0010004D001F08FFE013CF3D12046C8
:1043FC0038BD10B50446018AC06802F00FF820469B
:10440C00BDE81040FFF7E4BFF7B50C462721054681
:10441C00FFF7D4FF00F00800002814BF0126002687
:10442C000FD02B686A46DF68282106232846B84738
:10443C00BDF800302380BDF802306380BDF8043035
:10444C00A380304603B0F0BD13B503688DF804208B
:10445C001C6901AA0123A04702B010BD70B5036806
:10446C009B6804460D469847064630B901F0AEFDF0
:10447C00274901F03CFF304670BD2A7820212046A8
:10448C00FFF7E2FF6A7821212046FFF7DDFFAA78CB
:10449C0022212046FFF7D8FFEA7823212046FFF798
:1044AC00D3FF2A7924212046FFF7CEFF6A792521F4
:1044BC002046FFF7C9FFAB791BB126212046FFF739
:1044CC007DFFAA7A2E212046FFF7BEFFAB785B0654
:1044DC00D1D5EA7932212046FFF7B6FF2A7A33216B
:1044EC002046FFF7B1FF6368002B0ADB6A7A227261
:1044FC0020463021FFF7A8FF31212046FFF75EFF51
:10450C00B9E70022227230212046FFF79DFFB2E767
:10451C00DC690B0010B5044B03600446C06A08B19B
:10452C0001F038FB204610BDD86E0B0010B50446C8
:10453C00FFF7F0FF20465021FFF7A7FD204610BDE6
:10454C00002910B54BDBB0F90C408C4247DD002A3A
:10455C0045DBB0F90E40944241DD847E022C1FD025
:10456C00032C26D0012C04D10489D24314440A46CE
:10457C0021B2012B23D0022B32D083BB002A13464D
:10458C000489C06AB8BFD31DDB1013FB041102F001
:10459C00070201239340425C22EA030242541EE0CC
:1045AC000489013C611A4489D243224409B212B2F3
:1045BC00DFE74489013C641A114622B2D9E7002A8C
:1045CC0004891346B8BFD31DDB1013FB0411C36A57
:1045DC0002F0070001228240585C02435A5410BD7D
:1045EC00002A13460489C06AB8BFD31DDB1013FB25
:1045FC00041102F00702012303FA02F2435C5A4051
:10460C00CCE7000070B504461D46002600F05CFEA9
:10461C00114B2360666215B901F0F8FF0546FF23C4
:10462C0084F8333084F836309DF9103084F8373004
:10463C000A4BA363012384F83C30059BA3644FF61B
:10464C00FF72069BA286C4E90A562664A4F844604D
:10465C00E364204670BD00BFD86E0B00D0690B0020
:10466C00F8B50446806A0D4690B194F9301001F00B
:10467C0048FCA06A036800219B689847A06A0368FD
:10468C0029469B689847A06ABDE8F84001F040BCF9
:10469C0094F93530014698B202F06BF8606A20B19B
:1046AC002946BDE8F84001F055BF0826802794F94B
:1046BC00330005EA070180B202F05BF894F934008C
:1046CC00012180B202F055F894F93400002180B237
:1046DC0002F04FF8013E4FEA5707E8D1F8BD38B564
:1046EC000446806A0D4680B1A16C01F0F3FB002DED
:1046FC00204614BFA721A621FFF7B2FFA06A88B1FC
:10470C00E16CBDE8384001F0E5BB606A18B104F11A
:10471C00380101F0B1FE94F93600002180B202F0AC
:10472C0028F8E4E794F93600012180B202F021F870
:10473C00606A18B1BDE8384001F084BE38BD2DE97F
:10474C00F8430446806A0D468F1840B394F9301034
:10475C0001F0D7FBA06A036800219B6898470126EB
:10476C00AF42A06A17D01F2E0CD901F0D1FB94F9DF
:10477C003010A06A01F0C5FBA06A036800219B6899
:10478C0098470126A06A15F8011B036801369B683F
:10479C009847F6B2E4E7BDE8F84301F0B9BB94F9E9
:1047AC003530014698B201F0E4FFBD4222D0606A78
:1047BC0015F8019B18B1494601F0CCFEF5E7082627
:1047CC004FF0800894F9330009EA080180B201F037
:1047DC00D0FF94F93400012180B201F0CAFF94F9A2
:1047EC003400002180B201F0C4FF013E4FEA5808AA
:1047FC00E8D1DAE7BDE8F883B0F90A30DA1D48BF32
:10480C0003F10E02B0F90830C06AD2105A430021ED
:10481C0001F0F1BF2DE9FF411E46C36A9DF82880C7
:10482C0004460F461546C3B12046FFF7E5FFB4F921
:10483C000A00B4F90810202821DC2023012220389A
:10484C00CDE9013200EBD07073237339009301EB87
:10485C00D171894B40F34F0221E0B0F90A30D81DD9
:10486C0048BF03F10E00B4F90830C010584301F0F2
:10487C0089F9E0620028D7D104B0BDE8F081403856
:10488C00C0F3C03202FA80F240230120CDE901309E
:10489C00522352390093794B01EBD17152102046BF
:1048AC0041F34F0100F026FDA06A84F83170002816
:1048BC0078D0002D74D1B4F90A30202B0CBF3C25D4
:1048CC003D2584F83050B8F1000F01D001F006FB03
:1048DC00FEB194F9370000281BDB012180B201F0F6
:1048EC0037FF94F93700012180B201F042FF01201B
:1048FC0001F00AFC94F93700002180B201F039FF75
:10490C000A2001F001FC94F93700012180B201F07A
:10491C0030FFA06A002874D0A16C01F0DBFA0422ED
:10492C0057492046FFF70BFF61890139C9B2204670
:10493C00FFF796FE534904222046FFF700FF94F937
:10494C003130012B0CBF102114212046FFF788FEBB
:10495C0004224D492046FFF7F2FEA3684B4A9342CE
:10496C005CD14B4904222046FFF7E9FED9212046B1
:10497C00FFF776FE94F93130012B0CBF2221F12187
:10498C002046FFF76DFE204642490622FFF7D7FE70
:10499C00A06A002863D0E16C01F09CFA01206BE75F
:1049AC006DB28EE794F93500012180B201F0D0FE92
:1049BC0094F93600012180B201F0CAFE94F9360058
:1049CC00012180B201F0D5FE656A3DB1B8F1000F4E
:1049DC003FF47EAF284601F00DFD79E794F93300E2
:1049EC00012180B201F0B4FE94F93400012180B2AF
:1049FC0001F0AEFE94F93400294680B201F0B9FE04
:104A0C0066E7606A18B104F1380101F035FD94F9DC
:104A1C003600002180B201F0ACFE80E71E4A9342C2
:104A2C000ED11E4903222046FFF789FE94F931303E
:104A3C00012B0CBF9F21CF212046FFF711FE95E7DC
:104A4C00174A934292D1174903222046FFF777FE6B
:104A5C0094F93130012B0CBF1021AF21ECE794F904
:104A6C003600012180B201F084FE606A002895D0E6
:104A7C0001F0E8FC92E700BFF06C0B00306A0B0011
:104A8C00386F0B003C6F0B00406F0B008000200058
:104A9C004A6F0B00446F0B00800040004E6F0B0000
:104AAC0060001000516F0B0070B5002ABDF810505B
:104ABC003DDBB0F90A40944239DD0029BEBF5B18DA
:104ACC001BB20021B0F90840CE18A642C4BF631A2D
:104ADC001BB2002B2BDDC06AD61014FB061101444F
:104AEC0002F0070001228240012DD2B216D0022D15
:104AFC000BD0E5B9D243D2B20B44994217D011F87E
:104B0C00010B104001F8010CF7E70B4499420ED051
:104B1C0011F8010B504001F8010CF7E70B449942D6
:104B2C0005D011F8010B104301F8010CF7E770BD2B
:104B3C00F0B50029BDF8145076DBB0F90860B1422D
:104B4C0072DA002ABEBF9B181BB20022B0F90A40D1
:104B5C00D718A742C4BFA31A1BB2002B64DDC2F343
:104B6C00C404C76A16FB041612F00702DBB207EB8B
:104B7C00060423D0C2F10802D2B22D4993423CBFA5
:104B8C004FF0FF0CA2EB030E895C3CBF4CFA0EFC01
:104B9C000CEA0101012D07D0022D2ED04DB917F8CA
:104BAC0006C02CEA010103E017F806C041EA0C012B
:104BBC00B955934238D3B0F908100C449A1AD2B2B2
:104BCC00072A0ED9022D1DD113462178C943217015
:104BDC00083BB0F90810DBB2072B0C44F5D802F0F7
:104BEC0007020AB3134B012D9B5C1AD0022D1CD06B
:104BFC00D5B9227822EA030315E017F806C081EA3A
:104C0C000C01D5E7291E18BF01214942C9B2134630
:104C1C002170083BB0F90860DBB2072B3444F7D89D
:104C2C00DDE7227813432370F0BD22785340FAE776
:104C3C00286F0B00306F0B0070B41446827EBDF8E9
:104C4C000C60022A0DD0032A18D0012A11D1028936
:104C5C00E443144424B203960A46214670BCFFF781
:104C6C0067BF42890589E44319441444691A24B284
:104C7C0009B20396224670BCFFF716BF458919444A
:104C8C00691A09B2E7E730B41446827EBDF80850C1
:104C9C00022A0DD0032A18D0012A11D1E218048956
:104CAC00A41A24B202950A46214630BCFFF7FCBE7A
:104CBC000289C9431144E2184489A41A09B224B2E6
:104CCC000295224630BCFFF733BF4289C9431144D9
:104CDC0009B2E7E72DE9F8430446806A002842D080
:104CEC00A16C01F0F7F8474905222046FFF727FD94
:104CFC00218901392046C9B2FFF7B2FCB4F90A3058
:104D0C00DE1D48BF03F10E06D4E90A052389F6100F
:104D1C0013FB06F615FA86F600283AD094F93010F3
:104D2C0001F0EFF8A06A036840219B6898470127BF
:104D3C00B542A06A24D01F2F0CD901F0E9F894F9E0
:104D4C003010A06A01F0DDF8A06A036840219B686E
:104D5C0098470127A06A15F8011B036801379B6867
:104D6C009847FFB2E4E7606A18B104F1380101F02A
:104D7C0083FB94F93600002180B201F0FAFCB2E713
:104D8C0001F0C6F8A06A78B3E16CBDE8F84301F015
:104D9C00A1B894F93500012180B201F0EAFCAE42D1
:104DAC00F0D0606A15F8019B18B1494601F0D2FBAE
:104DBC00F5E708274FF0800894F9330009EA080159
:104DCC0080B201F0D6FC94F93400012180B201F0DC
:104DDC00D0FC94F93400002180B201F0CAFC013FF0
:104DEC004FEA5808E8D1DAE794F93600012180B28D
:104DFC0001F0BFFC606A18B1BDE8F84301F022BBBA
:104E0C00BDE8F883546F0B0000210A22C0E90012A0
:104E1C007047002310B50446C171837188B201F04C
:104E2C00C1FC08B10323A37100F0E0FD206010BDAC
:104E3C0038B50C4605461146A0B201F089FC214656
:104E4C002846BDE83840FFF7E4BF38B50446C079C2
:104E5C0001F0A8FCA579003825F0080318BF012043
:104E6C00C5F340058542A3710AD000F0BFFDA379BC
:104E7C00206083F00203A371A079C0F3C00038BD99
:104E8C0000F0B4FD2368C01AA3889842F4D3A37928
:104E9C0003F00103AB42EFD000F0A8FDA379206032
:104EAC0083F0010343F00803E5E7000010B5064B5F
:104EBC0003600446006D08B100F078FD2046FFF752
:104ECC0029FB204610BD00BF646F0B0010B50446D3
:104EDC00FFF7ECFF20467021FFF7D7F8204610BDF6
:104EEC0030B585B004460D4601F090FB104A1149CF
:104EFC00CDE901214FF0FF3280210346009220467C
:104F0C002022FFF77FFB0C4B23600023C4E91435F0
:104F1C0004F15800FFF778FF04F16000FFF774FF0D
:104F2C0004F16800FFF770FF204605B030BD00BFEC
:104F3C00801A0600A0860100646F0B0013B50446AE
:104F4C00503000F02BFD636DD90705D502220421EA
:104F5C0004F15800FFF76CFF636D9A0705D500222A
:104F6C00032104F16000FFF763FF636D5B0705D558
:104F7C000222114604F16800FFF75AFF0123009347
:104F8C003C2202212046FFF745FC02B010BD10B5B3
:104F9C00436DD907044602D55830FFF756FF636DB1
:104FAC009A0703D504F16000FFF74FFF636D5B07B1
:104FBC0005D504F16800BDE81040FFF746BF10BDF1
:104FCC002DE9F04F85B01F46BDF93880BDF83C3057
:104FDC00A8EB0209A7EB010AB9F1000FB8BFC9F1A0
:104FEC000009BAF1000FB8BFCAF1000AD1458346D7
:104FFC000C46154604DD3A462C4647460D4690466F
:10500C00BC4205DD2A464546904622463C4617469C
:10501C003E1BB2B20092A8EB050282EAE271A1EB50
:10502C00E271C6F3C03202FA86F64545B4BF0122DE
:10503C004FF0FF32019176100292BC421CDCDBF87F
:10504C0000200393D145D2F81880C7BF29462246C9
:10505C002A4621465846C047019A039BB61AB1B25C
:10506C0036B2002E05DA029A1544009A56182DB263
:10507C0036B2013424B2E0E705B0BDE8F08F7047DA
:10508C0010B404682469A4465DF8044B604730B43E
:10509C000468BDF808500295A46BA44630BC604768
:1050AC0030B40468BDF808500295E46BA44630BCDB
:1050BC00604770B4BDF90C50BDF810600468CDE9C0
:1050CC000356246CA44670BC60472DE9F3411C4682
:1050DC000368BDF820805B6905461646013C3444E4
:1050EC000F4624B298472B68CDF8048000949C6A34
:1050FC0028463B4632463946A0472B68DB6A284691
:10510C0002B0BDE8F04118472DE9F3411D46036894
:10511C00BDF820805B69044617460E469847CDE9DA
:10512C00007822686B1E3344956A20461BB23A46BF
:10513C003146A8472368DB6A204602B0BDE8F0413F
:10514C0018472DE9F3471E460368BDF928905B69A3
:10515C00BDF82C800C460546174698472644B442A9
:10516C002B680BDACDF80080D3F820A021464B46F3
:10517C003A4628460134D04724B2F0E7DB6A284689
:10518C0002B0BDE8F047184713B502680191B0F9B9
:10519C000E100091146CB0F90C3000221146A0478F
:1051AC0002B010BD2DE9F74399421646BDF928709F
:1051BC00BDF82C90026880460D461C4613D1BE42A9
:1051CC00C8BF3346CDF82890C4BF3E461F467B1C53
:1051DC00946B9B1B1BB2324629464046A44603B037
:1051EC00BDE8F0436047BE420AD19942C2BF0B46AC
:1051FC0025461C46631CCDF82890D46B5B1BE9E755
:10520C0053699847CDE90079D8F8003040469F6A39
:10521C00324623462946B847D8F80030DB6A404668
:10522C0003B0BDE8F04318472DE9F3471D4603686A
:10523C00BDF82C805B69BDF9289004460F461646D4
:10524C0098472368CDF80080D3F824A032462B462B
:10525C0039462046D0472368CDF8008009F1FF324B
:10526C003244D3F824A039462B46204612B2D047FC
:10527C002368CDF80080D3F820A032464B4639463F
:10528C002046D0476B1ED9192368CDF800801D6AC3
:10529C0020464B46324609B2A8472368DB6A2046B3
:1052AC0002B0BDE8F0471847704701F00303B0F9AE
:1052BC000A208376C907B0F9083059BF8381C281AF
:1052CC008281C3817047000030B54281C281074A98
:1052DC00074D0181002481814FF0FF31C0E9051297
:1052EC004460056004610477046230BD0101000173
:1052FC00BC740B002DE9F04F89B0CDE902120268A5
:10530C00BDF948800493BDF94C3052690593BDF842
:10531C0050A00446904718F107024FF0000648BF12
:10532C0008F10E024FEAE20B01963546039B019AF7
:10533C00BDF904109A18059B8B4212B227DD049B11
:10534C0033444FF0000906930FFA89F080451FFA99
:10535C0089F117DD4F0705BF069BC0106D001D5C62
:10536C0018BFEDB22B060AD5029B20680792194490
:10537C00836909B21F4620465346B847079A09F17C
:10538C000109E1E7019B013301935E44CEE72368F9
:10539C00DB6A204609B0BDE8F04F18472DE9F04F05
:1053AC002DED028B91B01646026ABDF874809DF803
:1053BC0078509DF87C4003911F46BDF870300493E3
:1053CC008346002A40F0C580B0F90C308B4240F384
:1053DC004C81B0F90E30B34240F34781062313FBE6
:1053EC000513002B40F3418106EBC403002B40F363
:1053FC003C81037F1BB9AF2F84BF0137FFB2DBF8B1
:10540C00003058465B6998470522099200220592A4
:10541C00984A07EB8703D3180C93B3B20693059AFB
:10542C000C9B9B5C0793ABB20B93BDF80C300893B1
:10543C00039B02FB05F919FA83F90FFA89F308EEBD
:10544C00103A08230A93039B02EB030A4FF000095E
:10545C000FFA8AFA079ADBF80030D20752D5012DE1
:10546C001FFA89F23ED1012C3CD19B6906991F464B
:10547C00049B0A4412B251465846B84709F101033D
:10548C004FFA83F9079B5B0807930A9B013B13F0C8
:10549C00FF030A93DED1059F01377BB20593099B6D
:1054AC00013B13F0FF030993B9D1049B43450FD083
:1054BC00012DDBF800303BD1012C39D10899CDF806
:1054CC00008005311C6A3246082309B25846A047B1
:1054DC00DBF80030DB6A584611B0BDEC028BBDE83E
:1054EC00F04F1847069914FB02F20A4404990191F3
:1054FC000094DB6918EE101A1F4612B22B46584660
:10550C00B847BBE7049A4245B8D0012D1FFA89F27F
:10551C0007D1012C05D19B6906991F460A444346C5
:10552C00A8E70699CDF8048014FB02F20A44DFE7E1
:10553C000B9ACDF8048002EB8201089AE4000A442D
:10554C0011460094DC6932462B4609B25846A047F6
:10555C00BEE7137A516812680B92FF1AFFB201EB87
:10556C00C70331F8372006929A780992DA780C92B0
:10557C00012D93F9052093F906A00A9201D8012C6C
:10558C0057D9BDF9283008930FFA8AF30793DBF843
:10559C00003058465B699847B3B24FF000080E9341
:1055AC001AFA86F3C14647460F930C9B9F428FD243
:1055BC00079B0E9A3B4403FB0423002205920F9A8F
:1055CC001BB202EB070A08EE103A0FFA8AFA4346AE
:1055DC00099A0599914241D25A1CD2B25B070D929D
:1055EC0007D1069B06990B9A01339BB212F80190D6
:1055FC00069319F0800F12D0012DDBF80030BDF8A6
:10560C000C101AD1012C18D10A9A9B691144059AD5
:10561C0011441E465246049B09B25846B047059E9B
:10562C000136F3B24FEA490905935FFA89F90D9BEC
:10563C00CEE70023CDE90733A9E70598089A024481
:10564C0002FB0511049ACDE90042DB6918EE102A21
:10565C001E4609B22B465846B047E0E7099B013776
:10566C0098445FFA88F8FFB29FE711B0BDEC028B4B
:10567C00BDE8F08FB46F0B00F0B5026A85B004463C
:10568C000B46002A34D10A2908D1438A0282427E71
:10569C0003EBC2036382012005B0F0BD0D29FAD0E3
:1056AC00E17E007E657E71B1B4F91060062111FBBC
:1056BC000061B4F90C60B142C1BFB4F9121022827E
:1056CC0001EBC5026282E28A0192A28A0092CDE9C4
:1056DC000205B4F91220B4F910102046FFF75EFE53
:1056EC00237E228A03EB430302EB43032382D2E79C
:1056FC000A2907D100230382417E927A438A01FB57
:10570C000233C7E70D29C6D0157AA942C3D3517A03
:10571C009942C0D351685D1BEDB201EBC505A87869
:10572C0028B3E97819B3E17E267E677E91B195F9AD
:10573C0005100844B4F9101006FB0011B4F90C0064
:10574C00814207DD00202082B4F91210927A02FB0C
:10575C0007126282E28A0192A28A0092CDE9026764
:10576C00B4F91220B4F910102046FFF717FE29796E
:10577C00227E238A01FB0233B8E7000008B5024BF6
:10578C001B681B68019308BD4C02030008B5024B53
:10579C001B681B69019308BD4C02030008B5024B42
:1057AC001B685B69019308BD4C02030008B5024BF2
:1057BC001B689B69019308BD4C02030008B5024BA2
:1057CC001B68DB69019308BD4C02030008B5024B52
:1057DC001B681B6A019308BD4C02030008B5024B01
:1057EC001B681B68019308BD2802030008B5024B17
:1057FC001B68DB68019308BD2802030008B5024B47
:10580C001B689B69019308BD2802030008B5024B75
:10581C001B68DB69019308BD2802030008B5024B25
:10582C001B681B6A019308BD2802030008B5024BD4
:10583C001B685B6A019308BD2802030008B5024B84
:10584C001B689B6A019308BD2802030008B5024B34
:10585C001B68DB6A019308BD2802030008B5024BE4
:10586C001B681B6B019308BD2802030008B5024B93
:10587C001B685B6B019308BD2802030008B5024B43
:10588C001B681B6C019308BD2802030008B5024B72
:10589C001B681B68019308BD3002030008B5024B5E
:1058AC001B685B69019308BD3002030008B5024B0D
:1058BC001B68DB69019308BD3002030008B5024B7D
:1058CC001B681B6A019308BD3002030008B5024B2C
:1058DC001B685B6A019308BD3002030008B5024BDC
:1058EC001B68DB6B019308BD3002030008B5024B4B
:1058FC001B681B6C019308BD3002030008B5024BFA
:10590C001B685B6C019308BD3002030008B5024BA9
:10591C001B68DB68019308BD3C02030008B5024B11
:10592C001B681B69019308BD3C02030008B5024BC0
:10593C001B685B69019308BD3C02030008B5024B70
:10594C001B689B69019308BD3C02030008B5024B20
:10595C001B68DB69019308BD3C02030008B5024BD0
:10596C001B681B6A019308BD3C02030008B5024B7F
:10597C001B689B6A019308BD3C02030008B5024BEF
:10598C001B681B6C019308BD3C02030008B5024B5D
:10599C001B685B69019308BD6402030008B5024BE8
:1059AC001B681B6B019308BD4802030008B5024B32
:1059BC001B685B6B019308BD4802030008B5024BE2
:1059CC001B685B6C019308BD4802030008B5024BD1
:1059DC001B685B68019308BD1802030008B5024BF5
:1059EC001B68DB68019308BD1802030008B5024B65
:1059FC001B685B69019308BD1802030008B5024BD4
:105A0C001B689B68019308BD2C02030008B5024B70
:105A1C001B68DB68019308BD2C02030008B5024B20
:105A2C001B681B69019308BD2C02030008B5024BCF
:105A3C001B685B69019308BD2C02030008B5024B7F
:105A4C001B689B68019308BD6802030008B5024BF4
:105A5C001B68DB68019308BD6802030008B5024BA4
:105A6C001B685B6B019308BD6002030008B5024B19
:105A7C001B68DB6B019308BD4402030008B5024BA5
:105A8C001B685B68019308BD4002030008B5024B1C
:105A9C001B689B68019308BD4002030008B5024BCC
:105AAC001B68DB68019308BD4002030008B5024B7C
:105ABC001B681B69019308BD4002030008B5024B2B
:105ACC001B685B69019308BD4002030008B5024BDB
:105ADC001B689B69019308BD4002030008B5024B8B
:105AEC001B68DB69019308BD4002030008B5024B3B
:105AFC001B681B6A019308BD4002030008B5024BEA
:105B0C001B681B6B019308BD4002030008B5024BD8
:105B1C001B685B6B019308BD4002030008B5024B88
:105B2C001B681B6C019308BD4002030008B5024BB7
:105B3C001B685B6C019308BD4002030008B5024B67
:105B4C001B685B68019308BD2002030008B5024B7B
:105B5C001B685B69019308BD2002030008B5034B69
:105B6C001B68D3F88830019308BD000020020300A5
:105B7C0008B5034B1B68D3F89430019308BD0000A3
:105B8C002002030008B5024B1B681B68019308BD7B
:105B9C001C02030008B5024B1B685B68019308BD2F
:105BAC001C02030008B5024B1B685B6A019308BD1D
:105BBC001C02030008B5024B1B681B6C019308BD4B
:105BCC001C02030008B5024B1B685B6C019308BDFB
:105BDC001C020300002340681A46FFF74FBF4068C1
:105BEC0000220221FFF75ABF002240681146FFF73E
:105BFC004DBF002240681146FFF758BF0023406894
:105C0C001A461946FFF75ABF002340681A46194630
:105C1C00FFF75CBF40680021FFF780BF40680021A0
:105C2C00FFF784BF4068002281F00101FFF756BFE7
:105C3C0040680022FFF762BF002240681146FFF760
:105C4C0065BF002240681146FFF750BF2DE9F043B5
:105C5C0095B014460D46074600F018FA00211C2298
:105C6C000DA8009100F0C7FD40230C9320466B4615
:105C7C000CAA0021FFF7EAFE044600284BD102468D
:105C8C0001216868FFF712FF0221804622466868EE
:105C9C00FFF70CFF009E81462146002E3BD00029C9
:105CAC0039D17368022B03D00A2B11D0F669F4E7B3
:105CBC00B8F1000FFAD0716906A8043107AD00F0F5
:105CCC0013FA0FCD3C1D0FC42B6823704146EDE732
:105CDC00B9F1000FEAD07469102201A800F08BFD15
:105CEC0006238DF8143001AD04F10803183418683C
:105CFC0059682A4603C20833A3421546F7D101A9B5
:105D0C0006A807AD00F0D0F90FCD3C1D0FC42B68D1
:105D1C0023704946CAE70098FFF790FE384615B045
:105D2C00BDE8F083024B034A1A6000225A607047A8
:105D3C00C4E6032014750B00002240681146FFF7DF
:105D4C00B5BE002240681146FFF7D0BE0022406865
:105D5C001146FFF7DBBE40680022FFF7CFBE40685C
:105D6C00002281F00101FFF7B9BE002340681A46FA
:105D7C001946FFF7ABBE002340681A461946FFF7D9
:105D8C009DBE002240681146FFF780BE406800228D
:105D9C000221FFF783BE002340681A46FFF76EBE50
:105DAC00024B04225A60024A1A607047CCE6032068
:105DBC0050750B0070474174704708B5007CFFF7B5
:105DCC00D5FD20EAE07008BD08B5007CFFF7A6FD04
:105DDC0020EAE07008BD08B5007CFFF7AFFD40EA93
:105DEC00E07008BD08B5007CFFF7A0FD40EAE0704C
:105DFC0008BD007CFFF7AABD37B5457C04462DB124
:105E0C00207C03B0BDE83040FFF780BD007C0191E1
:105E1C00FFF7ACFD00280199F2DC284603B030BD39
:105E2C0010B514210446FEF730F9204610BD0000D1
:105E3C0010B54FF47A730446084611460022C4E9A3
:105E4C000123044B2360012320746374FFF796FD38
:105E5C00204610BD8C750B007047F8B506461546EC
:105E6C000C468F18BC4206D0336814F8011B9B6893
:105E7C0030469847F6E72846F8BD007C0022FFF72D
:105E8C00CDBC007C0021FFF7D1BC007C0021FFF7CA
:105E9C00D5BC007C0021FFF7D9BC007C0021FFF7AA
:105EAC00DDBC10B514210446FEF7EFF8204610BDFA
:105EBC0010B54FF47A73044608460021C4E9011367
:105ECC00034B236020741146FFF7D8FC204610BD0D
:105EDC00BC750B00007C0022FFF780BC0023007C0B
:105EEC001A461946FFF782BC0A46007C00230121A2
:105EFC00FFF77CBCC9B2FFF7F7BF007C0022FFF7AD
:105F0C007DBCC9B2FFF7F9BF007C0022FFF77EBC55
:105F1C000121FFF7F9BF417470477047704708B50E
:105F2C000021007CFFF742FC40EAE07008BD08B598
:105F3C000121007CFFF73AFC40EAE07008BD08B58F
:105F4C00007CFFF72BFC20EAE07008BD08B5007C54
:105F5C00FFF71CFC20EAE07008BD13B50446007C7A
:105F6C000191FFF71BFC0028019901DC607C20B13A
:105F7C00207CFFF723FC20EAE07002B010BD007C0F
:105F8C00FFF724BC10B514210446FEF77EF820461A
:105F9C0010BD000010B54FF47A730446084600217A
:105FAC00C4E90113044B236001232074637411466C
:105FBC00FFF7E4FB204610BDE4750B0010B514226E
:105FCC000446002100F017FC204610BD10B50F4C04
:105FDC0088B003A8FFF7F2FF2178BFF35B8F11F0B5
:105FEC0001010FD120460191FEF75EF8019948B1ED
:105FFC0003AA0748FFF7CEFF2046FEF75AF80548DC
:10600C0000F0E5FB024808B010BD00BFD4E6032049
:10601C00D8E60320275F0B00704710B51821044603
:10602C00FEF733F8204610BDF0B5037D062B8DB07E
:10603C000E4600F104074FF0000412D000F10805E1
:10604C0015F8011D0A22304600F05BF9AF420444FA
:10605C0019D0002CF4D02E21304600F039F904442C
:10606C00EEE72F236A4639460A208DF80040FFF7E9
:10607C008DFC684600F0F6FB33680246DB68694627
:10608C0030469847044620460DB0F0BD10B5054B80
:10609C000446112240F8043B002100F0ACFB2046E2
:1060AC0010BD00BF14760B000346074A10B543F829
:1060BC00042B01F1100251F8044B43F8044B9142AC
:1060CC00F9D10A781A7010BD14760B0010B59DF832
:1060DC00084044EA032343EA024242EA01610423F2
:1060EC004160037510BD000007B5064B0360CB780B
:1060FC0000938B784A780978FFF7E8FF03B05DF8D6
:10610C0004FB00BF14760B000021FFF71FBD00003D
:10611C00014B1860704700BFACE5032008B50B4B72
:10612C0043B1FFF753FF03681B699847002801DD53
:10613C00AFF30080064B43B100F0A8FA03681B696B
:10614C009847002801DDAFF3008008BD0000000077
:10615C000000000008B5FFF7E1FFFFF747FC014B1B
:10616C00186008BD40E703200548064A064908B5F3
:10617C00121A00F032FB054B054A1A6008BD00BF2D
:10618C0000F4032004F4032064770B0000F40320D4
:10619C001E1C279A07B5002300931A466FF077014F
:1061AC00FFF7E6FC03B05DF804FB000007B543887D
:1061BC000A2B08D0502B0BD1094B1B684BB103B0E9
:1061CC005DF804EB1847FFF7E5FF03B05DF804FB3F
:1061DC00002300931A466FF07701FFF7C9FCF4E730
:1061EC00F0E6032010B512480021FFF7EBFC114B31
:1061FC001A68114B9A42114B0CBF012200221A70E3
:10620C0001D0FFF7B1FFFFF7E1FB044600F0FCFA09
:10621C000B4B13B12046AFF3008000210848FFF769
:10622C0025FCBDE8104007480021FFF797BC00BFD4
:10623C001D610B0000F403201E1C279AECE60320C2
:10624C0000000000B9610B00014B00229A607047FE
:10625C00F4E60320024B1A68024B1A60704700BF29
:10626C00A8E5032004E70320014B024A1A6070479B
:10627C0008E703203C760B00F8B506460D468F1850
:10628C000024BD420CD0336815F8011B9B683046C6
:10629C009847031E01DB1C44F3E7002C08BF1C4687
:1062AC002046F8BD13B50446084659B1019100F0DB
:1062BC00D9FA23680199DB680246204602B0BDE892
:1062CC001040184702B010BD08B5FFF7EBFF08BD32
:1062DC0003689B68184738B50D210546FFF7F8FF92
:1062EC000A2104462846FFF7F3FF204438BD38B591
:1062FC000546FFF7D7FF04462846FFF7ECFF20447E
:10630C0038BD30B58BB00023012A8DF8243098BFEE
:10631C000A2209AC0D46B1FBF2F101FB125303F05A
:10632C00FF03092B94BF30333733DBB2AA4204F896
:10633C00013DEFD92146FFF7B5FF0BB030BD2DE97C
:10634C00F04186B000AF05460E46381D14211446A8
:10635C003B60FFF727FC13280ED8391D2846FFF7A2
:10636C00A1FF04461EB12846FFF7B5FF04442046A2
:10637C001837BD46BDE8F08100F1080323F0070390
:10638C00E846ADEB030D2246411C3B686846FFF71F
:10639C0009FC69462846FFF785FF0446C546E1E738
:1063AC00024800230360FFF709BB00BF0CE7032082
:1063BC00054B02221A60054B054A9A600020C3E97E
:1063CC000000FFF7BBBB00BF1CE7032010E7032056
:1063DC000000FFFF0021FFF791BA0021FFF786BAFA
:1063EC0010B5044608462170FFF760FA002363607D
:1063FC00204610BD13B504460078FFF7EEFF58B9E0
:10640C00207801904FF6FF71FFF740FA019802B027
:10641C00BDE81040FFF7DEBF02B010BD13B5044657
:10642C0000780191FFF7D9FF019948B920780190C4
:10643C00FFF72CFA019802B0BDE81040FFF7CABF75
:10644C0002B010BD0078FFF7C5BF0000400830B5A2
:10645C001860002418688842E5B206D90134082C6B
:10646C0002D040081860F5E70725024B5B5D1370FE
:10647C0030BD00BF40760B002DE9F04306468FB0CF
:10648C0000780C46FFF7A9FF00281BDB3578142297
:10649C00002109A800F0AFF90B23002209A9284616
:1064AC00ADF82430FFF712FA9DF82D3013B19DF89A
:1064BC002C5055B10027B946B846012523795DB15A
:1064CC00C3B100200FB0BDE8F083DDF830809DF83B
:1064DC0034909DF83570F1E7002B35D1A368434516
:1064EC0008D18DF820908DF82170BDF82020A3895B
:1064FC009A42E6D00023A1688DF80F300A9804ABBD
:10650C000DF10F02FFF7A2FF217985B989B9A368B4
:10651C0043450ED38DF820908DF82170BDF82020C6
:10652C00A3899A4205D1049B434502D1C9E70029AE
:10653C00F9D100230193637B00939DF80F20237BFB
:10654C003078FFF7CBF9BCE7CDE900552B462A464E
:10655C000121F5E708B50078FFF7A0F9C0B208BD36
:10656C00002240681146FFF7C1BA0022406811466C
:10657C00FFF7CCBA40680022FFF7C0BA406800228F
:10658C0081F00101FFF7AABA002340681A461946A8
:10659C00FFF79CBA002340681A461946FFF78EBADB
:1065AC00002240681146FFF781BA0022406811466C
:1065BC00FFF76CBA406800220221FFF76FBA002384
:1065CC0040681A46FFF75ABA024B03225A60024A35
:1065DC001A60704720E7032050760B0070470000CC
:1065EC0038B52025142304460360856005610649EF
:1065FC00284600F0EAF804496060284600F0E5F807
:10660C00E060204638BD00BF84760B0030B50E4DDF
:10661C002978BFF35B8F11F0010487B011D12846A4
:10662C00FDF742FD68B101A8FFF7DAFF01AA214688
:10663C000648FFF73DFC2846FDF73BFD044800F0FB
:10664C00C6F8024807B030BD28E703202CE703202A
:10665C00E9650B007047000038B5044614252A463E
:10666C00002100F0C8F825804025074925812846DF
:10667C00258200F0AAF804496060284600F0A5F8CD
:10668C00E060204638BD00BF84760B0030B50E4D5F
:10669C002978BFF35B8F11F0010487B011D1284624
:1066AC00FDF702FD68B101A8FFF7D6FF01AA21464C
:1066BC000648FFF7BDFB2846FDF7FBFC044800F03D
:1066CC0086F8024807B030BD44E7032048E70320B2
:1066DC0061660B00232813B502D9002002B010BD4F
:1066EC00A0F10B03022B1AD8174C2178BFF35B8F48
:1066FC0011F001010BD120460191FDF7D5FC019958
:10670C0028B11248FFF76CFE2046FDF7D2FC0F4B68
:10671C001878FFF7D3F80028DFD10120DEE7012835
:10672C0009D8FFF773FF0021007CFFF79FF880F07A
:10673C000100C0B2D2E709380128EED8FFF7A6FF56
:10674C00007CFFF70BF9F2E714E6032018E60320B0
:10675C00232838B504460D460AD8FF2908D0FFF780
:10676C00B9FF28B129462046BDE83840FFF746B9A5
:10677C0038BD38B504460D46FFF748F9FF2810D050
:10678C00062804D84D2323FA00F0C30709D4204669
:10679C00FFF7A0FF28B129462046BDE83840FFF797
:1067AC003DB938BD10B50446FFF730F9031FDBB215
:1067BC00012B08D92046FFF78DFF20B12046BDE8FC
:1067CC001040FFF733B9002010BDFDF75CBC00236F
:1067DC0001461A46184600F04DB80A44914200F1A1
:1067EC00FF3300D1704710B511F8014B03F8014F7E
:1067FC009142F9D110BD02440346934200D1704737
:10680C0003F8011BF9E7000038B5104B1D68AB6BA2
:10681C000446B3B91820FFF7B5F90246A86320B9AE
:10682C000B4B0C484221FFF7C5F90B490B4BC0E948
:10683C0000130B4B83600B23838100210120C2E9E1
:10684C000401AB6B00221C615A6138BDACE503201E
:10685C0085760B009C760B000E33CDAB34126DE6B7
:10686C00ECDE0500034613F8012B002AFBD1181AA5
:10687C00013870472DE9F843DFF8B8800646D8F8A0
:10688C0000001F460D46914600F056F8254B1C683B
:10689C0034B9254C1C60254B13B11B68C4F88830E7
:1068AC0063681F2B07DDD8F8000000F047F84FF0A5
:1068BC00FF30BDE8F8834EB3D4F8880088B91C4B80
:1068CC0023B9D8F8000000F038F8F0E74FF48470E2
:1068DC00FFF758F90028F4D00023C0E94033C4F87E
:1068EC008800636840F8239001229A4000EB8301F2
:1068FC00D0F800311343C0F80031022EC1F880707B
:10690C0002BFD0F804311343C0F804316368D8F8DF
:10691C0000005A1C0233626044F8235000F00EF859
:10692C000020C6E7E8E703205CE703200000000036
:10693C00915B0B0010E60320704770477047000016
:10694C001D400B0059400B0081400B0085400B0093
:10695C000000000043616C6C206F6E2070757265D6
:10696C00207669727475616C0064656661756C740F
:10697C0020004D5342004C5342003C535049536548
:10698C007474696E67732064656661756C743E001F
:10699C003C53504953657474696E67732025732595
:1069AC0075202573204D4F444525753E00783A20BF
:1069BC0000793A20007A3A20000000000000000024
:1069CC00000000002D410B00C5400B00C7400B0020
:1069DC00646576696365206E6F7420666F756E648E
:1069EC00000000000000000000000000000000009B
:1069FC0000000000DD430B009D400B009D400B0090
:106A0C000000000000000000C9420B00CB420B004C
:106A1C00FF430B0009430B004B430B00D9420B0007
:106A2C00F3420B0000000000000180000000000099
:106A3C0000000000038000000000000000000007C0
:106A4C00C000000000000000000007C000000000B3
:106A5C0000000000000FC00000000000000000005B
:106A6C001FE00000000000000000001FE00000001C
:106A7C000000000000003FE00000000000000000EB
:106A8C00003FF00000000000000000007FF000005C
:106A9C0000000000001FF87FF00000000000000064
:106AAC003FFE7FF0000000000000003FFF7FF00081
:106ABC000000000000001FFFFBE0000000000000D1
:106ACC00000FFFF9FFC00000000000000FFFF9FFEE
:106ADC00F800000000000007FFF1FFFF00000000BD
:106AEC00000003FC73FFFF80000000000001FE3F6C
:106AFC00FFFF80000000000000FF1E0FFF000000E1
:106B0C00000000007FFE1FFC000000000000003FA2
:106B1C00FFFFF8000000000000000FDFFFE00000A6
:106B2C0000000000001F19FFC00000000000000062
:106B3C003F3CFF00000000000000007E7CF80000DD
:106B4C000000000000007FFE7C0000000000000040
:106B5C0000FFFFFC0000000000000000FFFFFE0033
:106B6C0000000000000000FFFFFE0000000000001D
:106B7C000001FFEFFE0000000000000001FFCFFE4F
:106B8C000000000000000003FF07FE0000000000F2
:106B9C00000003FC07FE0000000000000003F003EF
:106BAC00FE00000000000000018000FE000000005C
:106BBC000000000000007E0000000000000000004B
:106BCC00003E000000000000000000000C0000006F
:106BDC00000000078000FC000003C00000000780DC
:106BEC0001FC000003C0000000078001FC00000352
:106BFC00C0000000078001E00000001E000000073C
:106C0C008001E00000001E007FE3F79FF9FDE778AC
:106C1C007BDFC0FFF7FFBFFDFDFF787BDFC0FFF719
:106C2C00FFBFFDFDFF787BDFC0F0F787BC3DE1FFC8
:106C3C00787BDE00F0F787BC3DE1F0787BDE00006E
:106C4C00F787803DE1E0787BDE007FF7879FFDE1F1
:106C5C00E0787BDE00FFF787BFFDE1E0787BDE00AC
:106C6C00F0F787BC3DE1E0787BDE00F0F787BC3DB8
:106C7C00E1E0787BDE00F0F787BC3DE1E0787BDE7D
:106C8C0000FFF7FFBFFDE1E07FFBDFC0FFF7FFBFB9
:106C9C00FDE1E07FFBDFC07CF3F39F3DE1E03E7B59
:106CAC00CFC00000000000000000000000FFFFFF4C
:106CBC00FFFFFFFFFFFFFFC0FFFFFFFFFD68DB11C2
:106CCC001A31C0FFFFFFFFFD2B5AFB6AEFC0FFFF1D
:106CDC00FFFFFD4B5B3B1A33C0FFFFFFFFFD6B5B00
:106CEC00DB6AFDC000006000000000000000000036
:106CFC000000000000E000000000000000000000A8
:106D0C0000000001E0000000000000000000000096
:106D1C00000001F000000000000000000000000076
:106D2C000003F00000000000000000000000000064
:106D3C0007F0000000000000000000000000000749
:106D4C00F8000000000000000000000000000FF838
:106D5C0000000003C0007E000001E0007F0FF8007F
:106D6C00000003C000FE000001E000FFEFF800008F
:106D7C000003C000FE000001E000FFFFF80000006F
:106D8C0003C000F00000000F007FFE7FC000000376
:106D9C00C000F00000000F003FFE7FF83FF1FBCF7A
:106DAC00FCFEF3BC3DEFE01FFE7FFF7FFBFFDFFE31
:106DBC00FEFFBC3DEFE01FC6FFFF7FFBFFDFFEFECB
:106DCC00FFBC3DEFE00FE3C7FE787BC3DE1EF0FF98
:106DDC00BC3DEF0007FF87FC787BC3DE1EF0F83C60
:106DEC003DEF0001FFFFF0007BC3C01EF0F03C3D07
:106DFC00EF0001F37FE03FFBC3CFFEF0F03C3DEF33
:106E0C000003E33F807FFBC3DFFEF0F03C3DEF006F
:106E1C0007E73C00787BC3DE1EF0F03C3DEF00073B
:106E2C00FFBE00787BC3DE1EF0F03C3DEF0007FF99
:106E3C00FE00787BC3DE1EF0F03C3DEF000FFFFE42
:106E4C00007FFBFFDFFEF0F03FFDEFE00FFFFF00E8
:106E5C007FFBFFDFFEF0F03FFDEFE00FF9FF003EA0
:106E6C0079F9CF9EF0F01F3DE7E01FF1FF00000025
:106E7C000000000000000000001F80FF007FFFFFEB
:106E8C00FFFFFFFFFFFFFFE01C007F007FFFFFFF06
:106E9C00FEB46D888D18E000001F007FFFFFFFFE21
:106EAC0095AD7DB577E000000F007FFFFFFFFEA5DD
:106EBC00AD9D8D19E0000006007FFFFFFFFEB5AD14
:106ECC00EDB57EE0000000000000000021450B0045
:106EDC0039450B0085560B0085620B004D450B00A8
:106EEC008B500B008D500B00BF500B009B500B00B8
:106EFC00AD500B00CD4F0B008B500B00B7520B005D
:106F0C00EB460B00934C0B00454C0B004F510B0008
:106F1C0095510B00B1510B0035520B000080C0E0B5
:106F2C00F0F8FCFE000103070F1F3F7FAED580A8D1
:106F3C00D300408D2000A1C8DB40A4A62EAFDA02FE
:106F4C00818FDA1281DA02812200FF210000000019
:106F5C000000000000000000B94E0B00D94E0B00E1
:106F6C0085560B0085620B004D450B008B500B00BA
:106F7C008D500B00BF500B009B500B00AD500B0005
:106F8C00CD4F0B008B500B00B7520B00EB460B0098
:106F9C00934C0B00454C0B004F510B0095510B00C3
:106FAC00B1510B0035520B0000000000003E5B4F4E
:106FBC005B3E3E6B4F6B3E1C3E7C3E1C183C7E3C4D
:106FCC00181C577D571C1C5E7F5E1C00183C18005B
:106FDC00FFE7C3E7FF0018241800FFE7DBE7FF30EB
:106FEC00483A060E2629792926407F050507407F59
:106FFC0005253F5A3CE73C5A7F3E1C1C08081C1CCC
:10700C003E7F14227F22145F5F005F5F06097F01C1
:10701C007F006689956A606060606094A2FFA294AC
:10702C0008047E040810207E201008082A1C08087A
:10703C001C2A08081E101010100C1E0C1E0C3038C8
:10704C003E3830060E3E0E06000000000000005FC9
:10705C0000000007000700147F147F14242A7F2AE5
:10706C0012231308646236495620500008070300A7
:10707C00001C2241000041221C002A1C7F1C2A08F3
:10708C00083E080800807030000808080808000056
:10709C0060600020100804023E5149453E00427FCA
:1070AC00400072494949462141494D331814127F19
:1070BC001027454545393C4A4949314121110907B9
:1070CC003649494936464949291E0000140000003A
:1070DC00403400000008142241141414141400410C
:1070EC0022140802015909063E415D594E7C1211C9
:1070FC00127C7F494949363E414141227F41414101
:10710C003E7F494949417F090909013E414151737B
:10711C007F0808087F00417F41002040413F017FEC
:10712C00081422417F404040407F021C027F7F04B4
:10713C0008107F3E4141413E7F090909063E4151FD
:10714C00215E7F09192946264949493203017F01ED
:10715C00033F4040403F1F2040201F3F4038403FEE
:10716C00631408146303047804036159494D430004
:10717C007F4141410204081020004141417F04023B
:10718C0001020440404040400003070800205454D2
:10719C0078407F28444438384444442838444428B0
:1071AC007F385454541800087E090218A4A49C7803
:1071BC007F0804047800447D40002040403D007F5F
:1071CC001028440000417F40007C047804787C083F
:1071DC000404783844444438FC1824241818242413
:1071EC0018FC7C08040408485454542404043F44F8
:1071FC00243C4040207C1C2040201C3C4030403C27
:10720C0044281028444C9090907C4464544C440086
:10721C0008364100000077000000413608000201EA
:10722C000204023C2623263C1EA1A161123A4040D6
:10723C00207A385454555921555579412254547853
:10724C0042215554784020545579400C1E527212EC
:10725C003955555559395454545939555454580075
:10726C0000457C410002457D420001457C407D1279
:10727C0011127DF0282528F07C54554500205454DB
:10728C007C547C0A097F4932494949323A44444486
:10729C003A324A4848303A4141217A3A42402078C1
:1072AC00009DA0A07D3D4242423D3D4040403D3CC2
:1072BC0024FF2424487E4943662B2FFC2F2BFF09E7
:1072CC0029F620C0887E09032054547941000044DB
:1072DC007D413048484A32384040227A007A0A0AC6
:1072EC00727D0D19317D2629292F28262929292639
:1072FC0030484D4020380808080808080808382F7E
:10730C0010C8ACBA2F102834FA00007B0000081407
:10731C002A142222142A14085500550055AA55AADD
:10732C0055AAFF55FF55FF000000FF00101010FF7D
:10733C0000141414FF001010FF00FF1010F010F0D8
:10734C00141414FC001414F700FF0000FF00FF14C9
:10735C0014F404FC141417101F10101F101F141415
:10736C00141F00101010F0000000001F101010105F
:10737C001F10101010F010000000FF101010101053
:10738C0010101010FF10000000FF140000FF00FF91
:10739C0000001F10170000FC04F41414171017142D
:1073AC0014F404F40000FF00F7141414141414144F
:1073BC00F700F7141414171410101F101F141414C2
:1073CC00F4141010F010F000001F101F0000001F2C
:1073DC0014000000FC140000F010F01010FF10FF5F
:1073EC00141414FF141010101F00000000F010FFF4
:1073FC00FFFFFFFFF0F0F0F0F0FFFFFF00000000D8
:10740C0000FFFF0F0F0F0F0F3844443844FC4A4A5B
:10741C004A347E02020606027E027E026355494110
:10742C00633844443C04407E201E2006027E020247
:10743C0099A5E7A5991C2A492A1C4C7201724C305B
:10744C004A4D4D303048784830BC625A463D3E4932
:10745C004949007E0101017E2A2A2A2A2A44445FD6
:10746C00444440514A444040444A51400000FF01CA
:10747C0003E080FF000008086B6B083612362436D8
:10748C00060F090F0600001818000000101000303D
:10749C0040FF0101001F01011E00191D1712003CC5
:1074AC003C3C3C000000000000000000000000001C
:1074BC00000000000000000085560B0085620B00E8
:1074CC009D400B008B500B008D500B00BF500B00E0
:1074DC009B500B00AD500B00CD4F0B008B500B0095
:1074EC00B7520B00B5520B00D7500B0015510B00C7
:1074FC004F510B0095510B00B1510B0035520B0045
:10750C000000000000000000E15B0B00EB5B0B00D7
:10751C00F55B0B00FF5B0B00095C0B00155C0B00B3
:10752C00215C0B00295C0B00315C0B003D5C0B00FB
:10753C00455C0B004F5C0B00595C0B00000000001D
:10754C0000000000A35D0B00995D0B008F5D0B002C
:10755C00455D0B00835D0B00775D0B00215C0B0020
:10756C00295C0B006B5D0B00635D0B00595D0B0020
:10757C004F5D0B00595C0B00000000000000000088
:10758C00C15D0B002D5E0B00055E0B0085620B00D0
:10759C00D55D0B00F15D0B00E35D0B00FF5D0B0097
:1075AC00C35D0B00C75D0B00000000000000000075
:1075BC00655E0B00AF5E0B00875E0B00675E0B0019
:1075CC008F5E0B00975E0B009F5E0B00A75E0B009F
:1075DC000000000000000000295F0B00915F0B0011
:1075EC00675F0B0085620B00595F0B002B5F0B0074
:1075FC003B5F0B008B5F0B004B5F0B00235F0B00A3
:10760C00000000000000000035600B0025600B003E
:10761C0027600B0025592D256D2D25645425483ADE
:10762C00254D3A2553257A0061736374696D6500A5
:10763C00617070000008101820283038000000001D
:10764C0000000000CB650B00C1650B00B7650B009B
:10765C00AD650B00A1650B0095650B00215C0B0063
:10766C00295C0B0089650B0081650B0077650B00AD
:10767C006D650B00595C0B00005245454E54206D56
:10768C00616C6C6F6320737563636565646564001E
:10769C002F6D6E742F776F726B73706163652F77BC
:1076AC006F726B73706163652F4743432D31302DBF
:1076BC00706970656C696E652F6A656E6B696E7347
:1076CC002D4743432D31302D706970656C696E65A3
:1076DC002D34385F32303230313132345F31363024
:1076EC00363138303634312F7372632F6E65776CC8
:1076FC0069622F6E65776C69622F6C6962632F7398
:10770C0074646C69622F72616E642E6300000000F9
:10771C0039420B00315D0B00AD5D0B0055620B0067
:10772C0061620B0075620B00AD630B00BD630B0057
:04773C00D5650B0004
:10774000040000001400000003000000474E550034
:107750005AF0E581B712903A240744A707D031D1F7
:04776000E50345FEFA
:047764000000000021
:1077680034760B00B0E503200000000000000000A4
:107778000000000000000000000000000000000001
:1077880000000000000000000000000000000000F1
:1077980000000000000000000000000000000000E1
:1077A80000000000000000000000000000000000D1
:1077B80000000000000000000000000000000000C1
:0C77C8000000000000000000ECE70320BF
:1077D400FFFFFFFF00000102030405060708090A72
:1077E4000B0C0D0E0F101112131415161718191A6D
:0877F4001B1C1D1E1F202800B4
:0477FC007856341275
:04000003B000401CED
:00000001FF
